/home/ubuntu/PycharmProjects/networkProject/main/shell/python3_sudo.sh /home/ubuntu/PycharmProjects/networkProject/main/code/networkTrafficCapture01/test07.py
tcpdump: listening on ens33, link-type EN10MB (Ethernet), snapshot length 262144 bytes
16:07:57.568036 f6:e8:96:9e:b4:5b > 01:00:5e:00:00:fb, ethertype IPv4 (0x0800), length 530: (tos 0x0, ttl 255, id 17874, offset 0, flags [none], proto UDP (17), length 516)

    192.168.31.121.5353 > 224.0.0.251.5353: 0*- [0q] 9/0/5 ppp._rdlink._tcp.local. (Cache flush) TXT "rpBA=8E:CD:4E:1F:58:DC" "rpVr=360.4" "rpAD=02e4e6bdcff8", _services._dns-sd._udp.local. PTR _rdlink._tcp.local., _rdlink._tcp.local. PTR ppp._rdlink._tcp.local., ppp._device-info._tcp.local. TXT "model=D53gAP", ppp._rdlink._tcp.local. (Cache flush) SRV ppp.local.:49152 0 0, 1.C.6.8.A.2.9.4.0.3.A.A.E.B.8.1.0.0.0.0.0.0.0.0.0.0.0.0.0.8.E.F.ip6.arpa. (Cache flush) PTR ppp.local., 121.31.168.192.in-addr.arpa. (Cache flush) PTR ppp.local., ppp.local. (Cache flush) AAAA fe80::18be:aa30:492a:86c1, ppp.local. (Cache flush) A 192.168.31.121 (488)

	0x0000:  4500 0204 45d2 0000 ff11 b2f9 c0a8 1f79  E...E..........y

	0x0010:  e000 00fb 14e9 14e9 01f0 4fb0 0000 8400  ..........O.....

	0x0020:  0000 0009 0000 0005 0370 7070 075f 7264  .........ppp._rd

	0x0030:  6c69 6e6b 045f 7463 7005 6c6f 6361 6c00  link._tcp.local.

	0x0040:  0010 8001 0000 1194 0034 1672 7042 413d  .........4.rpBA=

	0x0050:  3845 3a43 443a 3445 3a31 463a 3538 3a44  8E:CD:4E:1F:58:D

	0x0060:  430a 7270 5672 3d33 3630 2e34 1172 7041  C.rpVr=360.4.rpA

	0x0070:  443d 3032 6534 6536 6264 6366 6638 095f  D=02e4e6bdcff8._

	0x0080:  7365 7276 6963 6573 075f 646e 732d 7364  services._dns-sd

	0x0090:  045f 7564 70c0 1d00 0c00 0100 0011 9400  ._udp...........

	0x00a0:  02c0 10c0 1000 0c00 0100 0011 9400 02c0  ................

	0x00b0:  0c03 7070 700c 5f64 6576 6963 652d 696e  ..ppp._device-in

	0x00c0:  666f c018 0010 0001 0000 1194 000d 0c6d  fo.............m

	0x00d0:  6f64 656c 3d44 3533 6741 50c0 0c00 2180  odel=D53gAP...!.

	0x00e0:  0100 0000 7800 0c00 0000 00c0 0003 7070  ....x.........pp

	0x00f0:  70c0 1d01 3101 4301 3601 3801 4101 3201  p...1.C.6.8.A.2.

	0x0100:  3901 3401 3001 3301 4101 4101 4501 4201  9.4.0.3.A.A.E.B.

	0x0110:  3801 3101 3001 3001 3001 3001 3001 3001  8.1.0.0.0.0.0.0.

	0x0120:  3001 3001 3001 3001 3001 3001 3001 3801  0.0.0.0.0.0.0.8.

	0x0130:  4501 4603 6970 3604 6172 7061 0000 0c80  E.F.ip6.arpa....

	0x0140:  0100 0000 7800 02c0 d103 3132 3102 3331  ....x.....121.31

	0x0150:  0331 3638 0331 3932 0769 6e2d 6164 6472  .168.192.in-addr

	0x0160:  c11b 000c 8001 0000 0078 0002 c0d1 c0d1  .........x......

	0x0170:  001c 8001 0000 0078 0010 fe80 0000 0000  .......x........

	0x0180:  0000 18be aa30 492a 86c1 c0d1 0001 8001  .....0I*........

	0x0190:  0000 0078 0004 c0a8 1f79 c00c 002f 8001  ...x.....y.../..

	0x01a0:  0000 1194 0009 c00c 0005 0000 8000 40c0  ..............@.

	0x01b0:  d700 2f80 0100 0000 7800 06c0 d700 0200  ../.....x.......

	0x01c0:  08c1 2d00 2f80 0100 0000 7800 06c1 2d00  ..-./.....x...-.

	0x01d0:  0200 08c0 d100 2f80 0100 0000 7800 08c0  ....../.....x...

	0x01e0:  d100 0440 0000 0800 0029 05a0 0000 1194  ...@.....)......

	0x01f0:  0012 0004 000e 00e1 9a42 ce1e df79 f6e8  .........B...y..

	0x0200:  969e b45b                                ...[

16:07:57.670528 f6:e8:96:9e:b4:5b > 33:33:00:00:00:fb, ethertype IPv6 (0x86dd), length 550: (flowlabel 0x60000, hlim 255, next-header UDP (17) payload length: 496) fe80::18be:aa30:492a:86c1.5353 > ff02::fb.5353: [udp sum ok] 0*- [0q] 9/0/5 ppp._rdlink._tcp.local. (Cache flush) TXT "rpBA=8E:CD:4E:1F:58:DC" "rpVr=360.4" "rpAD=02e4e6bdcff8", _services._dns-sd._udp.local. PTR _rdlink._tcp.local., _rdlink._tcp.local. PTR ppp._rdlink._tcp.local., ppp._device-info._tcp.local. TXT "model=D53gAP", ppp._rdlink._tcp.local. (Cache flush) SRV ppp.local.:49152 0 0, 1.C.6.8.A.2.9.4.0.3.A.A.E.B.8.1.0.0.0.0.0.0.0.0.0.0.0.0.0.8.E.F.ip6.arpa. (Cache flush) PTR ppp.local., 121.31.168.192.in-addr.arpa. (Cache flush) PTR ppp.local., ppp.local. (Cache flush) AAAA fe80::18be:aa30:492a:86c1, ppp.local. (Cache flush) A 192.168.31.121 (488)

	0x0000:  6006 0000 01f0 11ff fe80 0000 0000 0000  `...............

	0x0010:  18be aa30 492a 86c1 ff02 0000 0000 0000  ...0I*..........

	0x0020:  0000 0000 0000 00fb 14e9 14e9 01f0 7f74  ...............t

	0x0030:  0000 8400 0000 0009 0000 0005 0370 7070  .............ppp

	0x0040:  075f 7264 6c69 6e6b 045f 7463 7005 6c6f  ._rdlink._tcp.lo

	0x0050:  6361 6c00 0010 8001 0000 1194 0034 1672  cal..........4.r

	0x0060:  7042 413d 3845 3a43 443a 3445 3a31 463a  pBA=8E:CD:4E:1F:

	0x0070:  3538 3a44 430a 7270 5672 3d33 3630 2e34  58:DC.rpVr=360.4

	0x0080:  1172 7041 443d 3032 6534 6536 6264 6366  .rpAD=02e4e6bdcf

	0x0090:  6638 095f 7365 7276 6963 6573 075f 646e  f8._services._dn

	0x00a0:  732d 7364 045f 7564 70c0 1d00 0c00 0100  s-sd._udp.......

	0x00b0:  0011 9400 02c0 10c0 1000 0c00 0100 0011  ................

	0x00c0:  9400 02c0 0c03 7070 700c 5f64 6576 6963  ......ppp._devic

	0x00d0:  652d 696e 666f c018 0010 0001 0000 1194  e-info..........

	0x00e0:  000d 0c6d 6f64 656c 3d44 3533 6741 50c0  ...model=D53gAP.

	0x00f0:  0c00 2180 0100 0000 7800 0c00 0000 00c0  ..!.....x.......

	0x0100:  0003 7070 70c0 1d01 3101 4301 3601 3801  ..ppp...1.C.6.8.

	0x0110:  4101 3201 3901 3401 3001 3301 4101 4101  A.2.9.4.0.3.A.A.

	0x0120:  4501 4201 3801 3101 3001 3001 3001 3001  E.B.8.1.0.0.0.0.

	0x0130:  3001 3001 3001 3001 3001 3001 3001 3001  0.0.0.0.0.0.0.0.

	0x0140:  3001 3801 4501 4603 6970 3604 6172 7061  0.8.E.F.ip6.arpa

	0x0150:  0000 0c80 0100 0000 7800 02c0 d103 3132  ........x.....12

	0x0160:  3102 3331 0331 3638 0331 3932 0769 6e2d  1.31.168.192.in-

	0x0170:  6164 6472 c11b 000c 8001 0000 0078 0002  addr.........x..

	0x0180:  c0d1 c0d1 001c 8001 0000 0078 0010 fe80  ...........x....

	0x0190:  0000 0000 0000 18be aa30 492a 86c1 c0d1  .........0I*....

	0x01a0:  0001 8001 0000 0078 0004 c0a8 1f79 c00c  .......x.....y..

	0x01b0:  002f 8001 0000 1194 0009 c00c 0005 0000  ./..............

	0x01c0:  8000 40c0 d700 2f80 0100 0000 7800 06c0  ..@.../.....x...

	0x01d0:  d700 0200 08c1 2d00 2f80 0100 0000 7800  ......-./.....x.

	0x01e0:  06c1 2d00 0200 08c0 d100 2f80 0100 0000  ..-......./.....

	0x01f0:  7800 08c0 d100 0440 0000 0800 0029 05a0  x......@.....)..

	0x0200:  0000 1194 0012 0004 000e 00e1 9a42 ce1e  .............B..

	0x0210:  df79 f6e8 969e b45b                      .y.....[

16:07:59.616132 f6:e8:96:9e:b4:5b > 01:00:5e:00:00:fb, ethertype IPv4 (0x0800), length 371: (tos 0x0, ttl 255, id 61180, offset 0, flags [none], proto UDP (17), length 357)

    192.168.31.121.5353 > 224.0.0.251.5353: 0*- [0q] 7/0/3 ppp._rdlink._tcp.local. (Cache flush) TXT "rpBA=8E:CD:4E:1F:58:DC" "rpVr=360.4" "rpAD=02e4e6bdcff8", _services._dns-sd._udp.local. PTR _rdlink._tcp.local., _rdlink._tcp.local. PTR ppp._rdlink._tcp.local., ppp._device-info._tcp.local. TXT "model=D53gAP", ppp._rdlink._tcp.local. (Cache flush) SRV ppp.local.:49152 0 0, ppp.local. (Cache flush) AAAA fe80::18be:aa30:492a:86c1, ppp.local. (Cache flush) A 192.168.31.121 (329)

	0x0000:  4500 0165 eefc 0000 ff11 0a6e c0a8 1f79  E..e.......n...y

	0x0010:  e000 00fb 14e9 14e9 0151 de8e 0000 8400  .........Q......

	0x0020:  0000 0007 0000 0003 0370 7070 075f 7264  .........ppp._rd

	0x0030:  6c69 6e6b 045f 7463 7005 6c6f 6361 6c00  link._tcp.local.

	0x0040:  0010 8001 0000 1194 0034 1672 7042 413d  .........4.rpBA=

	0x0050:  3845 3a43 443a 3445 3a31 463a 3538 3a44  8E:CD:4E:1F:58:D

	0x0060:  430a 7270 5672 3d33 3630 2e34 1172 7041  C.rpVr=360.4.rpA

	0x0070:  443d 3032 6534 6536 6264 6366 6638 095f  D=02e4e6bdcff8._

	0x0080:  7365 7276 6963 6573 075f 646e 732d 7364  services._dns-sd

	0x0090:  045f 7564 70c0 1d00 0c00 0100 0011 9400  ._udp...........

	0x00a0:  02c0 10c0 1000 0c00 0100 0011 9400 02c0  ................

	0x00b0:  0c03 7070 700c 5f64 6576 6963 652d 696e  ..ppp._device-in

	0x00c0:  666f c018 0010 0001 0000 1194 000d 0c6d  fo.............m

	0x00d0:  6f64 656c 3d44 3533 6741 50c0 0c00 2180  odel=D53gAP...!.

	0x00e0:  0100 0000 7800 0c00 0000 00c0 0003 7070  ....x.........pp

	0x00f0:  70c0 1dc0 d100 1c80 0100 0000 7800 10fe  p...........x...

	0x0100:  8000 0000 0000 0018 beaa 3049 2a86 c1c0  ..........0I*...

	0x0110:  d100 0180 0100 0000 7800 04c0 a81f 79c0  ........x.....y.

5 packets captured
6 packets received by filter
0 packets dropped by kernel
4294967295 packets dropped by interface
	0x0120:  0c00 2f80 0100 0011 9400 09c0 0c00 0500  ../.............

	0x0130:  0080 0040 c0d1 002f 8001 0000 0078 0008  ...@.../.....x..

	0x0140:  c0d1 0004 4000 0008 0000 2905 a000 0011  ....@.....).....

	0x0150:  9400 1200 0400 0e00 e19a 42ce 1edf 79f6  ..........B...y.

	0x0160:  e896 9eb4 5b                             ....[

16:07:59.617317 f6:e8:96:9e:b4:5b > 33:33:00:00:00:fb, ethertype IPv6 (0x86dd), length 391: (flowlabel 0x60000, hlim 255, next-header UDP (17) payload length: 337) fe80::18be:aa30:492a:86c1.5353 > ff02::fb.5353: [udp sum ok] 0*- [0q] 7/0/3 ppp._rdlink._tcp.local. (Cache flush) TXT "rpBA=8E:CD:4E:1F:58:DC" "rpVr=360.4" "rpAD=02e4e6bdcff8", _services._dns-sd._udp.local. PTR _rdlink._tcp.local., _rdlink._tcp.local. PTR ppp._rdlink._tcp.local., ppp._device-info._tcp.local. TXT "model=D53gAP", ppp._rdlink._tcp.local. (Cache flush) SRV ppp.local.:49152 0 0, ppp.local. (Cache flush) AAAA fe80::18be:aa30:492a:86c1, ppp.local. (Cache flush) A 192.168.31.121 (329)

	0x0000:  6006 0000 0151 11ff fe80 0000 0000 0000  `....Q..........

	0x0010:  18be aa30 492a 86c1 ff02 0000 0000 0000  ...0I*..........

	0x0020:  0000 0000 0000 00fb 14e9 14e9 0151 0e53  .............Q.S

	0x0030:  0000 8400 0000 0007 0000 0003 0370 7070  .............ppp

	0x0040:  075f 7264 6c69 6e6b 045f 7463 7005 6c6f  ._rdlink._tcp.lo

	0x0050:  6361 6c00 0010 8001 0000 1194 0034 1672  cal..........4.r

	0x0060:  7042 413d 3845 3a43 443a 3445 3a31 463a  pBA=8E:CD:4E:1F:

	0x0070:  3538 3a44 430a 7270 5672 3d33 3630 2e34  58:DC.rpVr=360.4

	0x0080:  1172 7041 443d 3032 6534 6536 6264 6366  .rpAD=02e4e6bdcf

	0x0090:  6638 095f 7365 7276 6963 6573 075f 646e  f8._services._dn

	0x00a0:  732d 7364 045f 7564 70c0 1d00 0c00 0100  s-sd._udp.......

	0x00b0:  0011 9400 02c0 10c0 1000 0c00 0100 0011  ................

	0x00c0:  9400 02c0 0c03 7070 700c 5f64 6576 6963  ......ppp._devic

	0x00d0:  652d 696e 666f c018 0010 0001 0000 1194  e-info..........

	0x00e0:  000d 0c6d 6f64 656c 3d44 3533 6741 50c0  ...model=D53gAP.

	0x00f0:  0c00 2180 0100 0000 7800 0c00 0000 00c0  ..!.....x.......

	0x0100:  0003 7070 70c0 1dc0 d100 1c80 0100 0000  ..ppp...........

	0x0110:  7800 10fe 8000 0000 0000 0018 beaa 3049  x.............0I

	0x0120:  2a86 c1c0 d100 0180 0100 0000 7800 04c0  *...........x...

	0x0130:  a81f 79c0 0c00 2f80 0100 0011 9400 09c0  ..y.../.........

	0x0140:  0c00 0500 0080 0040 c0d1 002f 8001 0000  .......@.../....

	0x0150:  0078 0008 c0d1 0004 4000 0008 0000 2905  .x......@.....).

	0x0160:  a000 0011 9400 1200 0400 0e00 e19a 42ce  ..............B.

	0x0170:  1edf 79f6 e896 9eb4 5b                   ..y.....[

16:07:59.617331 f6:e8:96:9e:b4:5b > 33:33:00:00:00:fb, ethertype IPv6 (0x86dd), length 191: (flowlabel 0x60000, hlim 255, next-header UDP (17) payload length: 137) fe80::18be:aa30:492a:86c1.5353 > ff02::fb.5353: [udp sum ok] 0 [4q] [1au] PTR (QM)? lb._dns-sd._udp.local. PTR (QM)? _companion-link._tcp.local. PTR (QM)? _homekit._tcp.local. PTR (QM)? _sleep-proxy._udp.local. (129)

	0x0000:  6006 0000 0089 11ff fe80 0000 0000 0000  `...............

	0x0010:  18be aa30 492a 86c1 ff02 0000 0000 0000  ...0I*..........

	0x0020:  0000 0000 0000 00fb 14e9 14e9 0089 09ee  ................

	0x0030:  0000 0000 0004 0000 0000 0001 026c 6207  .............lb.

	0x0040:  5f64 6e73 2d73 6404 5f75 6470 056c 6f63  _dns-sd._udp.loc

	0x0050:  616c 0000 0c00 010f 5f63 6f6d 7061 6e69  al......_compani

	0x0060:  6f6e 2d6c 696e 6b04 5f74 6370 c01c 000c  on-link._tcp....

	0x0070:  0001 085f 686f 6d65 6b69 74c0 3700 0c00  ..._homekit.7...

	0x0080:  010c 5f73 6c65 6570 2d70 726f 7879 c017  .._sleep-proxy..

	0x0090:  000c 0001 0000 2905 a000 0011 9400 1200  ......).........

	0x00a0:  0400 0e00 e19a 42ce 1edf 79f6 e896 9eb4  ......B...y.....

	0x00b0:  5b                                       [

[]

进程已结束，退出代码为 0
